:100000000C9433000C94D3080C94FC080C94250930
:100010000C9435040C940C040C94E3030C9491039D
:100020000C94BA030C9468030C943F030C941603CD
:100030000C9450000C9450000C9450000C94500000
:100040000C944E090C9450000C9450000C945000E9
:100050000C9450006B11711177117D11831189116E
:100060008F116511951111241FBECFE5D8E0DEBFB9
:10007000CDBF10E0A0E6B0E0E0ECFEE202C00590EB
:100080000D92A037B107D9F720E0A0E7B0E001C09A
:100090001D92A938B207E1F70E94B1140C945E17C3
:1000A0000C940000813061F110F1823089F021E080
:1000B00030E093B7987F93BF93B76770692B63BFA6
:1000C00099B7916099BF99B7926099BFC901089596
:1000D00083B7806483BF83B7886083BF83B7806141
:1000E00083BF83B7806283BF20E030E0E2CF83B775
:1000F0008F7B83BF83B7877F83BF20E030E0D9CF7A
:1001000083B78F7B83BF83B7886083BF20E030E0F5
:10011000D0CF82BF08958CBF08958130D1F080F098
:10012000823029F0833019F081E090E0089583B7A0
:100130008F7E83BF83B7806283BF80E090E00895A5
:1001400083B78F7E83BF83B78F7D83BF80E090E0CE
:10015000089583B7806183BF83B78F7D83BF80E0BD
:1001600090E00895853600F5682F70E080E090E01B
:100170000E94411620E030E048EC52E40E949E15B7
:1001800020E030E04FE753E40E94F1169B01AC0100
:1001900060E070E08FE793E40E942C150E94101637
:1001A0006CBF80E090E0089581E090E008956115D3
:1001B000710559F0882361F0813039F47093730030
:1001C0006093720080E090E0089581E090E00895EF
:1001D00070937B0060937A0080E090E0089583B78D
:1001E0008B7F83BF83B7826083BF83B7816083BF08
:1001F00008958130C1F140F18230B9F021E030E062
:100200009EB5987F9EBD9EB56770692B6EBD99B7F0
:10021000946099BF99B7906199BF99B7986099BF59
:1002200099B7906299BFC90108958FB58E7F8FBD30
:100230008FB582608FBD8EB588608EBD8EB58061B2
:100240008EBD21E030E0DCCF8FB58E7F8FBD8FB5C6
:100250008D7F8FBD8EB5877F8EBD8EB58F7E8EBD17
:1002600020E030E0CDCF8FB58E7F8FBD8FB58D7FF5
:100270008FBD8EB58860F0CF9DBD8CBD08959BBDB0
:100280008ABD089599BD88BD08958130D1F080F070
:10029000823029F0833019F081E090E008958FB525
:1002A0008F7B8FBD8FB580688FBD80E090E0089513
:1002B0008FB58F7B8FBD8FB58F778FBD80E090E03E
:1002C00008958FB580648FBD8FB58F778FBD80E027
:1002D00090E008958130D1F080F0823029F08330B1
:1002E00019F081E090E008958FB58F7E8FBD8FB5B6
:1002F00080628FBD80E090E008958FB58F7E8FBDC6
:100300008FB58F7D8FBD80E090E008958FB58061BF
:100310008FBD8FB58F7D8FBD80E090E00895CF9326
:10032000C62F882331F08130E9F081E090E0CF9151
:10033000089541E050E065E070E083E090E00E94C5
:100340000206CC2361F0C13081F78FB58F7B8FBD62
:100350008FB580688FBD80E090E0CF9108958FB514
:100360008064F5CF41E050E064E070E083E090E02D
:100370000E940206CC2359F0C130B9F68FB58F7EAA
:100380008FBD8FB580628FBD80E090E0D0CF8FB5FC
:100390008061F6CFCF92DF92EF92FF9269017A01EE
:1003A000613022E172072AE782079105C8F49B01B8
:1003B000AC01C701B6010E94B2149B01AC0160E020
:1003C00072E18AE790E00E94D6142150310937BDCE
:1003D00026BD80E090E0FF90EF90DF90CF900895F1
:1003E00081E090E0FF90EF90DF90CF9008958F92A2
:1003F0009F92AF92BF92CF92DF92EF92FF921F93A4
:10040000CF93DF936B017C01142F20E030E048ECA8
:1004100052E40E94991518165CF166B577B5C6B519
:10042000D7B580E090E00E943F164B015C0120E0D0
:1004300030E048EC52E4C701B6010E949E156B0102
:100440007C01BE0180E090E00E943F169B01AC0160
:10045000C701B6010E94F1169B01AC01C501B401B0
:100460000E942C150E941016112381F0113099F072
:1004700081E090E0DF91CF911F91FF90EF90DF90AE
:10048000CF90BF90AF909F908F9008957BBD6ABD35
:1004900080E090E0EFCF79BD68BD80E090E0EACFEA
:1004A0006115710571F08130E9F0A8F0823061F0DA
:1004B000833039F4709371006093700080E090E0B5
:1004C000089581E090E0089570937900609378003A
:1004D00080E090E0089570937D0060937C0080E060
:1004E00090E00895709375006093740080E090E050
:1004F0000895813061F110F1823089F021E030E01F
:1005000095B5987F95BD95B56770692B65BD99B711
:10051000906499BF99B7906899BFC901089585B54E
:10052000806485BD85B5886085BD85B5806185BDE4
:1005300085B5806285BD20E030E0E2CF85B58F7B58
:1005400085BD85B5877F85BD20E030E0D9CF85B5F5
:100550008F7B85BD85B5886085BD20E030E0D0CF3C
:1005600084BD089583BD08958130D1F080F082303C
:1005700029F0833019F081E090E0089585B58F7EF1
:1005800085BD85B5806285BD80E090E0089585B524
:100590008F7E85BD85B58F7D85BD80E090E0089517
:1005A00085B5806185BD85B58F7D85BD80E090E096
:1005B0000895853600F5682F70E080E090E00E9495
:1005C000411620E030E048EC52E40E949E1520E005
:1005D00030E04FE753E40E94F1169B01AC0160E06C
:1005E00070E08FE793E40E942C150E94101663BD03
:1005F00080E090E0089581E090E008956115710534
:1006000059F0823061F0833039F470937700609351
:10061000760080E090E0089581E090E00895709386
:100620007F0060937E0080E090E008951F920F921B
:100630000FB60F9211242F933F934F935F936F93B5
:100640007F938F939F93AF93BF93EF93FF93E0912B
:100650007A00F0917B00309709F00995FF91EF91B6
:10066000BF91AF919F918F917F916F915F914F91CA
:100670003F912F910F900FBE0F901F9018951F92D2
:100680000F920FB60F9211242F933F934F935F93C6
:100690006F937F938F939F93AF93BF93EF93FF934A
:1006A000E0917200F0917300309709F00995FF9185
:1006B000EF91BF91AF919F918F917F916F915F91DA
:1006C0004F913F912F910F900FBE0F901F90189553
:1006D0001F920F920FB60F9211242F933F934F93B7
:1006E0005F936F937F938F939F93AF93BF93EF939A
:1006F000FF93E0917C00F0917D00309709F009951F
:10070000FF91EF91BF91AF919F918F917F916F91E9
:100710005F914F913F912F910F900FBE0F901F90BF
:1007200018951F920F920FB60F9211242F933F939B
:100730004F935F936F937F938F939F93AF93BF93E9
:10074000EF93FF93E0917400F0917500309709F0FA
:100750000995FF91EF91BF91AF919F918F917F91FB
:100760006F915F914F913F912F910F900FBE0F901E
:100770001F9018951F920F920FB60F9211242F936E
:100780003F934F935F936F937F938F939F93AF9319
:10079000BF93EF93FF93E0917800F0917900309749
:1007A00009F00995FF91EF91BF91AF919F918F91C2
:1007B0007F916F915F914F913F912F910F900FBE5D
:1007C0000F901F9018951F920F920FB60F92112441
:1007D0002F933F934F935F936F937F938F939F9349
:1007E000AF93BF93EF93FF93E0917000F09171008E
:1007F000309709F00995FF91EF91BF91AF919F91CB
:100800008F917F916F915F914F913F912F910F90B9
:100810000FBE0F901F9018951F920F920FB60F9258
:1008200011242F933F934F935F936F937F938F93F5
:100830009F93AF93BF93EF93FF93E0917E00F0916E
:100840007F00309709F00995FF91EF91BF91AF912B
:100850009F918F917F916F915F914F913F912F91D8
:100860000F900FBE0F901F9018951F920F920FB60A
:100870000F9211242F933F934F935F936F937F9326
:100880008F939F93AF93BF93EF93FF93E091760085
:10089000F0917700309709F00995FF91EF91BF91A2
:1008A000AF919F918F917F916F915F914F913F9108
:1008B0002F910F900FBE0F901F901895813091F0DF
:1008C00058F0823031F48BB780628BBF80E090E0CB
:1008D000089581E090E008958BB780648BBF80E03D
:1008E00090E008958BB780688BBF80E090E008951A
:1008F000813091F058F0823031F48BB78F7D8BBF0F
:1009000080E090E0089581E090E008958BB78F7BC0
:100910008BBF80E090E008958BB78F778BBF80E02E
:1009200090E00895811110C0653079F1B8F166301A
:1009300019F1673069F485B7816085BF85B78D7F10
:1009400085BF80E090E00895813029F0823089F100
:1009500081E090E00895653009F44AC0E8F166301E
:1009600091F16730A9F785B7846085BF85B7877F28
:1009700085BF80E090E0089585B78E7F85BF85B7FD
:100980008D7F85BF80E090E0089585B7816085BF49
:1009900085B7826085BF80E090E008956430C1F63D
:1009A00085B78E7F85BF85B7826085BF80E090E088
:1009B0000895643059F0653059F684B7806484BF77
:1009C00080E090E0089585B78B7FCFCF84B78F7B91
:1009D00084BF80E090E00895643009F0B9CF85B716
:1009E0008B7F85BF85B7886085BF80E090E00895E4
:1009F00085B78460F6CF6115710589F0813091F07B
:100A000040F0823061F482E00E94B00880E090E023
:100A1000089580E00E94B00880E090E0089581E0B1
:100A200090E0089581E00E94B00880E090E0089591
:100A30000F931F93CF938B019C01C42F08980998A3
:100A400060E072E18AE790E0A90198010E94D61463
:100A50002051269520B9CC0FC2B986B7806486BFD5
:100A600086B7846086BFCF911F910F910895880F3C
:100A700082B9109886B7806486BF86B7846086BFC7
:100A8000089586B7806286BF86B7806886BF06B63F
:100A900007FEFDCF81B1887F883019F080E090E0BB
:100AA000089589E090E0089586B7806286BF86B792
:100AB000806886BF06B607FEFDCF86B78F7D86BFEE
:100AC00081B1887F803119F081E090E0089589E05C
:100AD00090E00895880F83B9189A86B78F7D86BFF6
:100AE00086B7806886BF06B607FEFDCF81B1887FD6
:100AF000803419F083E090E0089589E090E0089553
:100B0000880F83B986B78F7D86BF86B7806886BF1A
:100B100006B607FEFDCF81B1887F883119F084E0E9
:100B200090E0089589E090E0089583B986B78068E1
:100B300086BF06B607FEFDCF81B1887F883219F0E7
:100B400085E090E0089589E090E00895FC0196B773
:100B5000906896BF06B607FEFDCF91B1987F90359D
:100B600019F086E090E0089583B1808389E090E0F9
:100B7000089596B7906896BF06B607FEFDCF91B16F
:100B8000987F983A81F023E030E096B7906896BF5E
:100B900006B607FEFDCF91B1987F983B11F027E094
:100BA00030E0C901089583B929E030E0EECFFC01BF
:100BB00096B7906896BF06B607FEFDCF91B1987FB5
:100BC000903681F024E030E096B7906896BF06B684
:100BD00007FEFDCF91B1987F903839F028E030E0E2
:100BE000C901089529E030E0EFCF83B18083C901C6
:100BF000089586B7806186BF86B7806886BF89E022
:100C000090E0089584309105F8F468307105E0F4BF
:100C100041305105E1F0452BB9F48230910509F4DA
:100C20004CC083309105E1F18130910571F12AB317
:100C300081E090E001C0880F6A95EAF780958223F1
:100C40008ABB80E090E0089581E090E008958230D2
:100C5000910509F449C083309105E1F18130910596
:100C600051F08AB301C0440F6A95EAF7482B4ABB9A
:100C700080E090E0089527B301C0880F6A95EAF7F5
:100C8000822B87BB80E090E0089527B301C0880FD6
:100C90006A95EAF78095822387BB80E090E008950B
:100CA00021B381E090E001C0880F6A95EAF7809552
:100CB000822381BB80E090E0089524B381E090E03E
:100CC00001C0880F6A95EAF78095822384BB80E093
:100CD00090E0089581B301C0440F6A95EAF7482B6C
:100CE00041BB80E090E0089584B301C0440F6A9551
:100CF000EAF7482B44BB80E090E0089584309105EA
:100D0000F8F468307105E0F441305105E1F0452B0D
:100D1000B9F48230910509F44CC083309105E1F1BA
:100D20008130910571F12BB381E090E001C0880F13
:100D30006A95EAF7809582238BBB80E090E0089566
:100D400081E090E008958230910509F449C0833034
:100D50009105E1F18130910551F08BB301C0440F51
:100D60006A95EAF7482B4BBB80E090E0089528B3E2
:100D700001C0880F6A95EAF7822B88BB80E090E07B
:100D8000089528B301C0880F6A95EAF780958223F9
:100D900088BB80E090E0089522B381E090E001C03C
:100DA000880F6A95EAF78095822382BB80E090E005
:100DB000089525B381E090E001C0880F6A95EAF7B5
:100DC0008095822385BB80E090E0089582B301C0C6
:100DD000440F6A95EAF7482B42BB80E090E0089503
:100DE00085B301C0440F6A95EAF7482B45BB80E004
:100DF00090E008958430910518F56830710500F58C
:100E00008230910511F183309105E9F0813091052F
:100E1000F1F029B381E090E0062E02C0880F991FFF
:100E20000A94E2F730E08223932302C095958795D8
:100E30006A95E2F7FA019183808380E090E008955B
:100E400081E090E0089520B3E5CF23B3E3CF26B34C
:100E5000E3CF81309105A9F080F08230910531F027
:100E6000039741F461BB80E090E0089564BB80E0AB
:100E700090E0089581E090E008956ABB80E090E002
:100E8000089567BB80E090E0089581309105A9F056
:100E900080F08230910531F0039741F462BB80E02D
:100EA00090E0089565BB80E090E0089581E090E0D7
:100EB00008956BBB80E090E0089568BB80E090E00F
:100EC000089581309105D9F0A0F08230910541F06C
:100ED000039761F480B3FB01808380E090E0089584
:100EE00083B3FB01808380E090E0089581E090E08F
:100EF000089589B3FB01808380E090E0089586B374
:100F0000FB01808380E090E0089584309105E8F44F
:100F100068307105D0F48230910559F18330910524
:100F2000B9F081309105B1F12AB381E090E001C0C0
:100F3000880F6A95EAF7982F909592239ABB9BB3F6
:100F4000892B8BBB80E090E0089581E090E00895CC
:100F500021B381E090E001C0880F6A95EAF7982FED
:100F60009095922391BB92B3892B82BB80E090E055
:100F7000089524B381E090E001C0880F6A95EAF7F4
:100F8000982F9095922394BB95B3892B85BB80E0D5
:100F900090E0089527B301C0880F6A95EAF7982F6B
:100FA0009095922397BB98B3892B88BB80E090E003
:100FB00008956F708130910521F1D0F08230910554
:100FC00059F0039791F482B3807F82BB82B3682B80
:100FD00062BB80E090E0089585B3807F85BB85B3D8
:100FE000682B65BB80E090E0089581E090E0089573
:100FF0008BB3807F8BBB8BB3682B6BBB80E090E0A7
:10100000089588B3807F88BB88B3682B68BB80E075
:1010100090E00895607F8130910521F1D0F0823019
:10102000910559F0039791F482B38F7082BB82B31C
:10103000682B62BB80E090E0089585B38F7085BB1C
:1010400085B3682B65BB80E090E0089581E090E077
:1010500008958BB38F708BBB8BB3682B6BBB80E019
:1010600090E0089588B38F7088BB88B3682B68BB05
:1010700080E090E008956F708130910521F1D0F00B
:101080008230910559F0039791F481B3807F81BB41
:1010900081B3682B61BB80E090E0089584B3807FCA
:1010A00084BB84B3682B64BB80E090E0089581E04A
:1010B00090E008958AB3807F8ABB8AB3682B6ABBAD
:1010C00080E090E0089587B3807F87BB87B3682B6B
:1010D00067BB80E090E00895607F8130910521F149
:1010E000D0F08230910559F0039791F481B38F705D
:1010F00081BB81B3682B61BB80E090E0089584B32D
:101100008F7084BB84B3682B64BB80E090E008954B
:1011100081E090E008958AB38F708ABB8AB3682B10
:101120006ABB80E090E0089587B38F7087BB87B378
:10113000682B67BB80E090E00895882359F08130E8
:1011400031F48FB780688FBF80E090E0089581E030
:1011500090E008958FB78F778FBF80E090E008957B
:1011600061157105E9F0813069F098F0823019F06D
:1011700080E090E00895709385006093840080E0A3
:1011800090E00895709383006093820080E090E087
:101190000895709381006093800080E090E008954E
:1011A00081E090E008951F920F920FB60F921124E4
:1011B0002F933F934F935F936F937F938F939F935F
:1011C000AF93BF93EF93FF93E0918000F091810084
:1011D000309709F00995FF91EF91BF91AF919F91E1
:1011E0008F917F916F915F914F913F912F910F90D0
:1011F0000FBE0F901F9018951F920F920FB60F926F
:1012000011242F933F934F935F936F937F938F930B
:101210009F93AF93BF93EF93FF93E0918200F09180
:101220008300309709F00995FF91EF91BF91AF913D
:101230009F918F917F916F915F914F913F912F91EE
:101240000F900FBE0F901F9018951F920F920FB620
:101250000F9211242F933F934F935F936F937F933C
:101260008F939F93AF93BF93EF93FF93E09184008D
:10127000F0918500309709F00995FF91EF91BF91AA
:10128000AF919F918F917F916F915F914F913F911E
:101290002F910F900FBE0F901F9018951F920F92D5
:1012A0000FB60F9211242F938F939F93EF93FF9379
:1012B00084B125B1E0918700F091880090E0922BF5
:1012C000918380833398FF91EF919F918F912F911C
:1012D0000F900FBE0F901F9018956C9A6D986B9899
:1012E0006A986E9A6F98689A699A709808956C983F
:1012F0006D986B986A986E9A6F9808958FB9779BDE
:10130000FECF80E090E0089577990EC020E030E0B5
:1013100004C0283E43E0340769F02F5F3F4F779BBE
:10132000F8CF283E334031F02FB1FC01208380E01C
:1013300090E0089582E090E008953E9A3F983D98AD
:1013400086B1887786B986B1876086B90895379A5D
:10135000089537980895339A0895339808958730FB
:1013600048F496B1987796B996B1892B86B980E002
:1013700090E0089581E090E0089561157105A1F075
:1013800097B1907797B997B1892B87B9369A349BE3
:10139000FECF349A84B125B190E0922BFB0191836A
:1013A000808380E090E0089581E090E00895CF93FD
:1013B00061157105A9F0C82F7093880060938700AC
:1013C000BA0184E00E94B00887B1807787B987B1FD
:1013D0008C2B87B9369A339A80E090E0CF910895AC
:1013E00081E090E0CF9108958091860089788868A7
:1013F0008093860080BD87E689B980E090E00895FB
:101400005D9BFECF8CB980E090E008955F9BFECF9E
:101410002CB1FC01208380E090E00895FC01448120
:10142000558162817381808191810C940206CF93F2
:10143000DF9300D0CDB7DEB71A821982FC01248178
:1014400035812230310508F12230310539F080E054
:1014500090E00F900F90DF91CF910895FC01628191
:101460007381AE014F5F5F4F808191810E94FA06C8
:1014700081E090E029813A812130310551F380E00B
:101480000F900F90DF91CF91089562817381AE012B
:101490004F5F5F4F808191810E94FA0681E090E06A
:1014A00029813A8121303105A1F6E9CFCF938230ED
:1014B00020F081E090E0CF910895C82F60E00E9475
:1014C0008F0120E430E040E050E062E370E080E033
:1014D00090E00E94CA014C2F60E070E080EA90E446
:1014E0000E94F70163E082E00E94F90080E090E052
:1014F000CF910895CF93853B10F4623020F081E0C6
:1015000090E0CF910895C62F682F70E080E090E0C2
:101510000E94411620E030E040E152E40E949E1516
:1015200020E030E040EA50E40E942D154C2F0E944C
:10153000F70180E090E0CF9108951F93CF93DF9360
:10154000009709F452C0EC0188A5882389F010E0C7
:10155000FE0184E0189FE00DF11D1124628173816A
:10156000808191810E9485071F5F88A5181780F3ED
:1015700089A58823A1F110E0FE0184E0189FE00D09
:10158000F11D112462897389FE0184E0189FE00D2A
:10159000F11D112441E050E0808991890E940206EA
:1015A0001F5F89A5181740F38823C9F010E0FE01DA
:1015B00084E0189FE00DF11D112462897389FE01FA
:1015C00084E0189FE00DF11D112441E050E0808976
:1015D00091890E947E061F5F89A5181740F380E05D
:1015E00090E0DF91CF911F91089581E090E0DF912D
:1015F000CF911F9108958F929F92AF92BF92CF92F9
:10160000DF92EF92FF921F93CF93DF9300D0CDB77D
:10161000DEB7FC0121A5222309F447C04B016C0170
:1016200010E00EC0F7016289738941E050E08089C3
:1016300091890E947E061F5FF60181A51817A8F503
:10164000A12EB12C7601F4E01F9FE00CF11C1124B7
:10165000F7016289738940E050E0808991890E9496
:101660007E06F60180A58823E9F262817381AE01CE
:101670004F5F5F4F808191810E94FA0689819A8134
:10168000892B99F4F401EA0DFB1D1081F6016281AA
:101690007381AE014F5F5F4F808191810E94FA0696
:1016A00089819A81892B91F301C01FEF812F0F90BF
:1016B0000F90DF91CF911F91FF90EF90DF90CF902F
:1016C000BF90AF909F908F900895CF92DF92EF924E
:1016D000FF920F931F93CF93DF93009709F442C0BB
:1016E0008C017C016C0180E1C80ED11CE8016A818B
:1016F0007B8140E050E0888199810E9402066A81E6
:101700007B8141E050E0888199810E947E06249689
:10171000CC15DD0561F7E8016A897B8941E050E07D
:10172000888999890E9402062496CC15DD05A1F7C7
:10173000F7016289738941E050E0808991890E94B4
:101740007E06F4E0EF0EF11CEC14FD0489F780E056
:1017500090E0DF91CF911F910F91FF90EF90DF907C
:10176000CF90089581E090E0F4CF8F929F92AF9256
:10177000BF92CF92DF92EF92FF920F931F93CF937E
:10178000DF9300D0CDB7DEB75C014C01C12CD12C6A
:10179000F4016289738940E050E0808991890E9458
:1017A0007E068501E12CF12CF80162817381AE0186
:1017B0004F5F5F4F808191810E94FA0689819A81F3
:1017C000892B61F1FFEFEF1AFF0A0C5F1F4F84E0D6
:1017D000E816F10449F7F4016289738941E050E0A9
:1017E000808991890E947E06FFEFCF1ADF0A84E08C
:1017F000880E911CE4E0CE16D10451F68FEF0F90C5
:101800000F90DF91CF911F910F91FF90EF90DF909C
:10181000CF90BF90AF909F908F9008959701220F27
:10182000331F220F331FC901805A9F4FFC01EC0D5B
:10183000FD1DD0807501E20EF31E87010E5F1F4F64
:10184000F80160817181AE014F5F5F4FF7018081C8
:1018500091810E94FA0629813A81232B89F38D2DEB
:10186000CECFCF93DF930097F1F0EC0169857A85B5
:1018700041E050E08B819C810E947E0681E090E0F7
:101880000E94B01469857A8540E050E08B819C818C
:101890000E947E0681E090E00E94B01480E090E01B
:1018A000DF91CF91089581E090E0DF91CF9108958D
:1018B0001F93CF93DF93EC01162F8B858F30C9F0E8
:1018C000811111C062956F7089819A810E94D90738
:1018D000CE010E94310C612F89819A810E94D90723
:1018E000CE010E94310C80E090E0DF91CF911F91FA
:1018F000089589819A810E940A08CE010E94310CC4
:10190000612F6295607F89819A810E940A08CE01C9
:101910000E94310CE8CF1F93CF93DF93009721F102
:10192000162FEC016D817E8140E050E08B819C811F
:101930000E947E066F81788540E050E08B819C811B
:101940000E947E0688818830A9F0843031F080E0E2
:1019500090E0DF91CF911F910895612FCE01DF912B
:10196000CF911F910C94580C81E090E0DF91CF91C2
:101970001F910895612F89819A810E944507CE01A8
:101980000E94310C80E090E0E4CF1F93CF93DF936F
:10199000009721F1162FEC016D817E8141E050E02E
:1019A0008B819C810E947E066F81788540E050E0AB
:1019B0008B819C810E947E0688818830A9F08430CA
:1019C00031F080E090E0DF91CF911F910895612F79
:1019D000CE01DF91CF911F910C94580C81E090E0E3
:1019E000DF91CF911F910895612F89819A810E9483
:1019F0004507CE010E94310C80E090E0E4CFCF9308
:101A0000DF93009709F457C0EC016D817E8141E0BE
:101A100050E08B819C810E9402066F81788541E0B5
:101A200050E08B819C810E94020669857A8541E0A5
:101A300050E08B819C810E9402068881883009F4E5
:101A400045C0843029F080E090E0DF91CF91089587
:101A50008B858F3009F466C0882391F162E0CE0156
:101A60000E948B0C82E390E00E94B01468E2CE01E9
:101A70000E948B0C81E090E00E94B0146CE0CE01DB
:101A80000E948B0C81E090E00E94B01461E0CE01D6
:101A90000E948B0C85E090E00E94B01466E0CE01BD
:101AA0000E948B0C85E090E00E94B01480E090E0F2
:101AB000DF91CF91089581E090E0DF91CF9108957B
:101AC0006FEF89819A810E943B08C8CF6FEF8981AF
:101AD0009A810E94290782E390E00E94B01468E393
:101AE000CE010E948B0C81E090E00E94B0146CE06B
:101AF000CE010E948B0C81E090E00E94B01461E066
:101B0000CE010E948B0C85E090E00E94B01466E04C
:101B1000CE010E948B0C81E090E00E94B01480E026
:101B200090E093CF6FEF89819A810E946C0896CFE5
:101B3000009751F061E00E948B0C81E090E00E94E0
:101B4000B01480E090E0089581E090E0089500975F
:101B500029F00E94C50C80E090E0089581E090E0BB
:101B60000895EF92FF920F931F93CF93FB0100977D
:101B7000C1F06081662369F07F018C01C0E0CF5F16
:101B8000C8010E94C50CF701EC0FF11D60816111C5
:101B9000F6CF80E090E0CF911F910F91FF90EF90F2
:101BA000089581E090E0CF911F910F91FF90EF9009
:101BB00008950097B9F02FEF260F223050F060E81B
:101BC0000E948B0C81E090E00E94B01480E090E0D5
:101BD00008952FEF240F203190F7613031F06FEB33
:101BE000640FEECF81E090E008956FE7640FE8CFD7
:101BF000BF92CF92DF92EF92FF920F931F93CF93FA
:101C0000DF9300D000D01F92CDB7DEB77C01CB01AF
:101C1000E114F10409F462C09E012F5F3F4F690196
:101C200025E0F60111922A95E9F7009709F44FC0D3
:101C300077FF52C0919581959109BB24B39400E040
:101C40002AE030E001C0042F41E0400F10E0F6012F
:101C5000E00FF11FB9010E94C214805D8083CB01A7
:101C6000009789F7342F369561F0D601A40FB11D86
:101C7000F60180E090812E9121939C938F5F8313D6
:101C8000F9CF442399F0BB2021F06DE2C7010E94F7
:101C9000C50C0F5F1F4F0C0D1D1DF60161916F01EB
:101CA000C7010E94C50C0C151D05B9F780E090E036
:101CB0000F900F900F900F900F90DF91CF911F9189
:101CC0000F91FF90EF90DF90CF90BF90089560E369
:101CD000C7010E94C50CEACFB12CB1CF81E090E0E2
:101CE000E7CF2F923F924F925F926F927F928F92A7
:101CF0009F92AF92BF92CF92DF92EF92FF920F939B
:101D00001F93CF93DF93009709F456C06A017B01BC
:101D1000EC01CB01BA010E9410164B015C018B0152
:101D200080E090E00E943F169B01AC01C701B60124
:101D30000E942C1520E030E048EC52E40E94F1169D
:101D40000E9410162B013C011B0120E030E0A9018C
:101D5000C701B6010E94991587FD21C0B801CE01C7
:101D60000E94F80D6EE2CE010E94C50CB101CE01B9
:101D70000E94F80D80E090E0DF91CF911F910F91CC
:101D8000FF90EF90DF90CF90BF90AF909F908F909B
:101D90007F906F905F904F903F902F9008952224F6
:101DA00033242418350800271127081919096DE272
:101DB000CE010E94C50CD2CF81E090E0DDCFEF9242
:101DC000FF920F931F93CF93DF93009709F17B014D
:101DD0008C01642F660F660F660F605C0E948B0C8F
:101DE000E70188E0E80EF11C6991C8010E94C50C6A
:101DF000CE15DF05C9F760E8C8010E948B0C80E0B2
:101E000090E0DF91CF911F910F91FF90EF90089597
:101E100081E090E0DF91CF911F910F91FF90EF90C3
:101E200008951F93CF93DF93009789F0342F162FD7
:101E3000EC01422F632F0E94D90D612FCE010E9429
:101E4000C50C80E090E0DF91CF911F91089581E073
:101E500090E0DF91CF911F910895009731F06CE1F0
:101E60000E948B0C80E090E0089581E090E008955E
:101E7000009731F068E10E948B0C80E090E00895BB
:101E800081E090E00895009731F06CE00E948B0CA7
:101E900080E090E0089581E090E008950C94430F75
:101EA000009731F069E00E948B0C80E090E008958B
:101EB00081E090E00895009731F06FE00E948B0C74
:101EC00080E090E0089581E090E00895009731F07F
:101ED0006EE00E948B0C80E090E0089581E090E03D
:101EE00008950C94660F009761F0FC016281738184
:101EF00041E050E0808191810E94020680E090E004
:101F0000089581E090E00895009761F0FC016281FE
:101F1000738141E050E0808191810E947E0680E0E3
:101F200090E0089581E090E00895009761F0FC0151
:101F30006281738140E050E0808191810E947E0641
:101F400080E090E0089581E090E00895FC01248114
:101F500035812130310589F0232B19F081E090E0A3
:101F60000895FC016281738140E050E0808191819D
:101F70000E947E0680E090E008956281738141E0D6
:101F800050E0808191810E947E0680E090E008957B
:101F9000FC01248135812130310589F0232B19F092
:101FA00081E090E00895FC016281738141E050E09E
:101FB000808191810E947E0680E090E00895628198
:101FC000738140E050E0808191810E947E0680E034
:101FD00090E00895CF93DF93EC018C819D81892B54
:101FE00019F4CE010E94C80F6A817B8141E050E064
:101FF00088819981DF91CF910C940206FC012481A4
:1020000035812130310589F0232B19F081E090E0F2
:102010000895FC016281738140E050E080819181EC
:102020000E947E0680E090E008956281738141E025
:1020300050E0808191810E947E0680E090E00895CA
:10204000FC01248135812130310589F0232B19F0E1
:1020500081E090E00895FC016281738141E050E0ED
:10206000808191810E947E0680E090E008956281E7
:10207000738140E050E0808191810E947E0680E083
:1020800090E00895CF93DF93EC018C819D81892BA3
:1020900019F4CE010E9420106A817B8141E050E05A
:1020A00088819981DF91CF910C940206CF93DF93C1
:1020B0000097B1F0EC016A817B8141E050E08881BA
:1020C00099810E9402066C817D8141E050E0888107
:1020D00099810E94020680E090E0DF91CF910895FF
:1020E00081E090E0DF91CF910895CF93DF93009747
:1020F000B1F0EC016A817B8141E050E088819981F7
:102100000E947E066C817D8140E050E0888199814B
:102110000E947E0680E090E0DF91CF91089581E0FB
:1021200090E0DF91CF910895CF93DF930097B1F0C6
:10213000EC016A817B8140E050E0888199810E94B6
:102140007E066C817D8141E050E0888199810E940A
:102150007E0680E090E0DF91CF91089581E090E0ED
:10216000DF91CF910895CF93DF930097B1F0EC0109
:102170006A817B8140E050E0888199810E947E06DF
:102180006C817D8140E050E0888199810E947E06CB
:1021900080E090E0DF91CF91089581E090E0DF91C1
:1021A000CF910895009761F0FC016281738140E056
:1021B00050E0808191810E94020680E090E00895C5
:1021C00081E090E00895009759F0AB01FC01628135
:1021D0007381808191810E94FA0680E090E00895E9
:1021E00081E090E00895CF92DF92EF92FF920F93FB
:1021F0001F93CF93DF93062F10E06C01C0E0D0E077
:10220000EE24E394F12CA7010C2E02C0440F551FBD
:102210000A94E2F7402351230C2E02C055954795AE
:102220000A94E2F7F60162817381808191810E94B4
:102230007E062196F4E0CF0ED11CC730D10519F7E8
:10224000DF91CF911F910F91FF90EF90DF90CF9092
:1022500008950F931F93CF93DF930097B9F0EC018C
:102260008C01045E1F4F6A817B8141E050E08881D0
:1022700099810E9402062496C017D107A1F780E039
:1022800090E0DF91CF911F910F91089581E090E050
:10229000DF91CF911F910F910895009799F06A30C7
:1022A00088F4462F50E0FA013197E930F10530F01B
:1022B0006FE30E94F31080E090E00895E65DFF4F29
:1022C0000C94F81481E090E008956FE70E94F310F9
:1022D00080E090E0089566E00E94F31080E090E0D6
:1022E00008956BE50E94F31080E090E008956FE49C
:1022F0000E94F31080E090E0089566E60E94F310DB
:1023000080E090E008956DE60E94F31080E090E098
:1023100008956DE70E94F31080E090E0089567E073
:102320000E94F31080E090E008956FE60E94F310A1
:1023300080E090E008950F931F93CF93DF93009771
:10234000B9F0EC018C01005F1F4F6A817B8141E095
:1023500050E0888199810E9402062496C017D10717
:10236000A1F780E090E0DF91CF911F910F91089548
:1023700081E090E0DF91CF911F910F910895CF926E
:10238000DF92EF92FF920F931F93CF93DF9300970B
:1023900089F16A3078F5EC01062F10E0C12CD12CC0
:1023A000EE24E394F12CA7010C2C02C0440F551F1E
:1023B0000A94E2F7402351230C2C02C0559547950F
:1023C0000A94E2F76A817B81888199810E947E0666
:1023D0008FEFC81AD80A84E0C816D10421F780E02C
:1023E00090E0DF91CF911F910F91FF90EF90DF90E0
:1023F000CF90089581E090E0F4CFFC01128613861F
:102400001486158616861786108A118A08950F93EA
:102410001F93E62F009791F0DC011A960D911D9104
:102420002D913C911D971E964D915D916D917C91E2
:102430005197041715072607370730F46FEF7FEF22
:10244000CB011F910F910895A40FB51FEC934F5F1F
:102450005F4F6F4F7F4FFC0146875787608B718BB3
:102460000F5F1F4F2F4F3F4F0287138724873587FA
:1024700061E070E080E090E01F910F910895FC0111
:10248000892BD9F086859785A089B1890197A10903
:10249000B10986879787A08BB18B42855385648568
:1024A00075854150510961097109428753876487D5
:1024B0007587E80FF91F808108958FEF08950097C1
:1024C00031F0FC01628573858485958508956FEFF1
:1024D0007FEFCB010895009769F0FC014685578591
:1024E000608971894150510961097109E40FF51F33
:1024F000808108958FEF0895009759F0FC011686AA
:102500001786108A118A128613861486158681E032
:1025100008958FEF0895FC0110A611A612A613A628
:1025200014A615A616A617A60895CF92DF92EF92CD
:10253000FF920F931F93009771F0FC01C0A4D1A4E8
:10254000E2A4F3A404A515A526A537A5C016D106B7
:10255000E206F30650F46FEF7FEFCB011F910F916E
:10256000FF90EF90DF90CF900895F801EE0FFF1FDE
:10257000EE0FFF1FE80FF91F4083518362837383BF
:102580000F5F1F4F2F4F3F4FFC0104A715A726A732
:1025900037A7FFEFCF1ADF0AEF0AFF0AFC01C0A638
:1025A000D1A6E2A6F3A661E070E080E090E01F9182
:1025B0000F91FF90EF90DF90CF900895FC01892B51
:1025C00011F144A555A566A577A5415051096109AA
:1025D000710944A755A766A777A780A591A5A2A5CD
:1025E000B3A50197A109B10980A791A7A2A7B3A795
:1025F000440F551F440F551FE40FF51F6081718173
:102600008281938108956FEF7FEFCB01089500974A
:1026100031F0FC0160A571A582A593A508956FEF27
:102620007FEFCB0108950097A1F0FC0144A555A5CB
:1026300066A577A54150510961097109440F551FDD
:10264000440F551FE40FF51F6081718182819381D2
:1026500008956FEF7FEFCB010895009771F0FC01B3
:1026600014A615A616A617A610A611A612A613A69E
:1026700061E070E080E090E008956FEF7FEFCB01C4
:102680000895FC0110A611A612A613A614A615A65D
:1026900016A617A60895CF92DF92EF92FF920F939E
:1026A0001F93009771F0FC01C0A4D1A4E2A4F3A48D
:1026B00004A515A526A537A5C016D106E206F30682
:1026C00050F46FEF7FEFCB011F910F91FF90EF90D0
:1026D000DF90CF900895F801EE0FFF1FEE0FFF1F60
:1026E000E80FF91F40835183628373830F5F1F4F8D
:1026F0002F4F3F4FFC0104A715A726A737A7FFEFD1
:10270000CF1ADF0AEF0AFF0AFC01C0A6D1A6E2A693
:10271000F3A661E070E080E090E01F910F91FF90E0
:10272000EF90DF90CF900895FC01892B11F144A523
:1027300055A566A577A5415051096109710944A7BE
:1027400055A766A777A780A591A5A2A5B3A50197D0
:10275000A109B10980A791A7A2A7B3A7440F551F4C
:10276000440F551FE40FF51F6081718182819381B1
:1027700008956FEF7FEFCB010895009731F0FC01D2
:1027800060A571A582A593A508956FEF7FEFCB019A
:1027900008950097A1F0FC0144A555A566A577A56D
:1027A0004150510961097109440F551F440F551FCC
:1027B000E40FF51F608171818281938108956FEF2D
:1027C0007FEFCB010895009771F0FC0114A615A6C8
:1027D00016A617A610A611A612A613A661E070E011
:1027E00080E090E008956FEF7FEFCB010895FC014A
:1027F00010A611A612A613A614A615A616A617A60D
:102800000895CF92DF92EF92FF920F931F9300975C
:1028100071F0FC01C0A4D1A4E2A4F3A404A515A501
:1028200026A537A5C016D106E206F30650F46FEFD1
:102830007FEFCB011F910F91FF90EF90DF90CF9032
:102840000895F801EE0FFF1FEE0FFF1FE80FF91FAD
:1028500040835183628373830F5F1F4F2F4F3F4F1E
:10286000FC0104A715A726A737A7FFEFCF1ADF0A99
:10287000EF0AFF0AFC01C0A6D1A6E2A6F3A661E01A
:1028800070E080E090E01F910F91FF90EF90DF905B
:10289000CF900895FC01892B11F144A555A566A59B
:1028A00077A5415051096109710944A755A766A749
:1028B00077A780A591A5A2A5B3A50197A109B10904
:1028C00080A791A7A2A7B3A7440F551F440F551F78
:1028D000E40FF51F6081718182819381089560E02A
:1028E00070E080E89FEB0895009731F0FC0160A54F
:1028F00071A582A593A508956FEF7FEFCB01089591
:102900000097A1F0FC0144A555A566A577A5415007
:10291000510961097109440F551F440F551FE40FF8
:10292000F51F6081718182819381089560E070E07C
:1029300080E89FEB0895009771F0FC0114A615A69E
:1029400016A617A610A611A612A613A660E070E0A0
:1029500080E89FE3089560E070E080E89FEB0895D1
:10296000FFCFFFCFDB018F939F930E94FE14BF9197
:10297000AF91A29F800D911DA39F900DB29F900DCE
:102980001124089597FB072E16F4009407D077FDC5
:1029900009D00E94091507FC05D03EF49095819559
:1029A0009F4F0895709561957F4F0895A1E21A2E6B
:1029B000AA1BBB1BFD010DC0AA1FBB1FEE1FFF1FE3
:1029C000A217B307E407F50720F0A21BB30BE40B33
:1029D000F50B661F771F881F991F1A9469F760957A
:1029E0007095809590959B01AC01BD01CF01089534
:1029F000EE0FFF1F0590F491E02D09940E941D1524
:102A0000A59F900DB49F900DA49F800D911D112442
:102A10000895AA1BBB1B51E107C0AA1FBB1FA61725
:102A2000B70710F0A61BB70B881F991F5A95A9F777
:102A300080959095BC01CD010895A29FB001B39FF0
:102A4000C001A39F700D811D1124911DB29F700DB7
:102A5000811D1124911D08955058BB27AA270E945B
:102A600044150C94B7160E94A91638F00E94B016AF
:102A700020F039F49F3F19F426F40C94A6160EF4B6
:102A8000E095E7FB0C94A016E92F0E94C81658F3B6
:102A9000BA17620773078407950720F079F4A6F543
:102AA0000C94EA160EF4E0950B2EBA2FA02D0B0114
:102AB000B90190010C01CA01A0011124FF27591B83
:102AC00099F0593F50F4503E68F11A16F040A22F89
:102AD000232F342F4427585FF3CF469537952795FA
:102AE000A795F0405395C9F77EF41F16BA0B620BF9
:102AF000730B840BBAF09150A1F0FF0FBB1F661F40
:102B0000771F881FC2F70EC0BA0F621F731F841F82
:102B100048F4879577956795B795F7959E3F08F0A8
:102B2000B0CF9395880F08F09927EE0F979587956A
:102B300008950E947C1608F481E008950E94B21561
:102B40000C94B7160E94B01658F00E94A91640F0D7
:102B500029F45F3F29F00C94A01651110C94EB1648
:102B60000C94A6160E94C81668F39923B1F3552356
:102B700091F3951B550BBB27AA2762177307840790
:102B800038F09F5F5F4F220F331F441FAA1FA9F326
:102B900035D00E2E3AF0E0E832D091505040E69514
:102BA000001CCAF72BD0FE2F29D0660F771F881F75
:102BB000BB1F261737074807AB07B0E809F0BB0B68
:102BC000802DBF01FF2793585F4F3AF09E3F51057C
:102BD00078F00C94A0160C94EB165F3FE4F3983E4B
:102BE000D4F3869577956795B795F7959F5FC9F765
:102BF000880F911D9695879597F90895E1E0660FE6
:102C0000771F881FBB1F621773078407BA0720F05E
:102C1000621B730B840BBA0BEE1F88F7E0950895C7
:102C20000E94D01688F09F5798F0B92F9927B75176
:102C3000B0F0E1F0660F771F881F991F1AF0BA9560
:102C4000C9F714C0B13091F00E94EA16B1E00895BE
:102C50000C94EA16672F782F8827B85F39F0B93FB0
:102C6000CCF3869577956795B395D9F73EF4909513
:102C70008095709561957F4F8F4F9F4F0895E89491
:102C800009C097FB3EF490958095709561957F4FB4
:102C90008F4F9F4F9923A9F0F92F96E9BB27939562
:102CA000F695879577956795B795F111F8CFFAF472
:102CB000BB0F11F460FF1BC06F5F7F4F8F4F9F4FA3
:102CC00016C0882311F096E911C0772321F09EE801
:102CD000872F762F05C0662371F096E8862F70E067
:102CE00060E02AF09A95660F771F881FDAF7880F41
:102CF0009695879597F90895990F0008550FAA0B97
:102D0000E0E8FEEF16161706E807F907C0F01216FE
:102D10001306E407F50798F0621B730B840B950B01
:102D200039F40A2661F0232B242B252B21F4089556
:102D30000A2609F4A140A6958FEF811D811D0895F3
:102D400097F99F6780E870E060E008959FEF80EC5E
:102D5000089500240A941616170618060906089501
:102D600000240A9412161306140605060895092E67
:102D70000394000C11F4882352F0BB0F40F4BF2BD6
:102D800011F460FF04C06F5F7F4F8F4F9F4F089516
:102D900057FD9058440F551F59F05F3F71F047950C
:102DA000880F97FB991F61F09F3F79F087950895F1
:102DB000121613061406551FF2CF4695F1DF08C010
:102DC000161617061806991FF1CF8695710561052D
:102DD00008940895E894BB2766277727CB0197F9D5
:102DE00008950E9404170C94B7160E94A91638F093
:102DF0000E94B01620F0952311F00C94A0160C94AC
:102E0000A61611240C94EB160E94C81670F3959F19
:102E1000C1F3950F50E0551F629FF001729FBB27D1
:102E2000F00DB11D639FAA27F00DB11DAA1F649F6D
:102E30006627B00DA11D661F829F2227B00DA11D20
:102E4000621F739FB00DA11D621F839FA00D611DA6
:102E5000221F749F3327A00D611D231F849F600DC7
:102E6000211D822F762F6A2F11249F5750409AF0F0
:102E7000F1F088234AF0EE0FFF1FBB1F661F771F7C
:102E8000881F91505040A9F79E3F510580F00C9447
:102E9000A0160C94EB165F3FE4F3983ED4F38695AE
:102EA00077956795B795F795E7959F5FC1F7FE2BE7
:102EB000880F911D9695879597F90895F894FFCFFF
:102EC0003738392F3435362A3132332D43303D2BC4
:00000001FF
